:1000000012C02AC047C017C016C015C014C013C004
:1000100012C011C010C00FC00EC00DC00CC00BC06C
:100020000AC009C008C011241FBECFE5D4E0DEBF5E
:10003000CDBF4ED050C0E4CF87B3866087BBA59AB2
:100040008A9882B38C6082BB85B78A6085BF8BB784
:10005000806C8BBF789408951F920F920FB60F9209
:1000600011242F938F939F9382990CC0AD98C19ABE
:100070002FEF81E19AE7215080409040E1F700C0E6
:100080000000C1989F918F912F910F900FBE0F90FC
:100090001F9018951F920F920FB60F9211242F9355
:1000A0008F939F9383990CC0AD98C29A2FEF81E1F3
:1000B0009AE7215080409040E1F700C00000C298CC
:1000C0009F918F912F910F900FBE0F901F901895B9
:0A00D000B3DFAD9AFECFF894FFCF26
:00000001FF
